{
  "_format": "hh-sol-artifact-1",
  "contractName": "Greeter",
  "sourceName": "contracts/Greeter.sol",
  "abi": [
    {
      "inputs": [
        {
          "internalType": "string",
          "name": "_initialGreeting",
          "type": "string"
        }
      ],
      "stateMutability": "nonpayable",
      "type": "constructor"
    },
    {
      "anonymous": false,
      "inputs": [
        {
          "indexed": false,
          "internalType": "string",
          "name": "oldGreeting",
          "type": "string"
        },
        {
          "indexed": false,
          "internalType": "string",
          "name": "newGreeting",
          "type": "string"
        }
      ],
      "name": "ResetGreeting",
      "type": "event"
    },
    {
      "inputs": [],
      "name": "greet",
      "outputs": [
        {
          "internalType": "string",
          "name": "",
          "type": "string"
        }
      ],
      "stateMutability": "view",
      "type": "function"
    },
    {
      "inputs": [
        {
          "internalType": "string",
          "name": "_newGreeting",
          "type": "string"
        }
      ],
      "name": "setGreeting",
      "outputs": [],
      "stateMutability": "nonpayable",
      "type": "function"
    }
  ],
  "bytecode": "0x608060405234801561001057600080fd5b50604051610c79380380610c79833981810160405281019061003291906101bd565b80600090816100419190610427565b50506104f9565b6000604051905090565b600080fd5b600080fd5b600080fd5b600080fd5b6000601f19601f8301169050919050565b7f4e487b7100000000000000000000000000000000000000000000000000000000600052604160045260246000fd5b6100af82610066565b810181811067ffffffffffffffff821117156100ce576100cd610077565b5b80604052505050565b60006100e1610048565b90506100ed82826100a6565b919050565b600067ffffffffffffffff82111561010d5761010c610077565b5b61011682610066565b9050602081019050919050565b60005b83811015610141578082015181840152602081019050610126565b60008484015250505050565b600061016061015b846100f2565b6100d7565b90508281526020810184848401111561017c5761017b610061565b5b610187848285610123565b509392505050565b600082601f8301126101a4576101a361005c565b5b81516101b484826020860161014d565b91505092915050565b6000602082840312156101d3576101d2610052565b5b600082015167ffffffffffffffff8111156101f1576101f0610057565b5b6101fd8482850161018f565b91505092915050565b600081519050919050565b7f4e487b7100000000000000000000000000000000000000000000000000000000600052602260045260246000fd5b6000600282049050600182168061025857607f821691505b60208210810361026b5761026a610211565b5b50919050565b60008190508160005260206000209050919050565b60006020601f8301049050919050565b600082821b905092915050565b6000600883026102d37fffffffffffffffffffffffffffffffffffffffffffffffffffffffffffffffff82610296565b6102dd8683610296565b95508019841693508086168417925050509392505050565b6000819050919050565b6000819050919050565b600061032461031f61031a846102f5565b6102ff565b6102f5565b9050919050565b6000819050919050565b61033e83610309565b61035261034a8261032b565b8484546102a3565b825550505050565b600090565b61036761035a565b610372818484610335565b505050565b5b818110156103965761038b60008261035f565b600181019050610378565b5050565b601f8211156103db576103ac81610271565b6103b584610286565b810160208510156103c4578190505b6103d86103d085610286565b830182610377565b50505b505050565b600082821c905092915050565b60006103fe600019846008026103e0565b1980831691505092915050565b600061041783836103ed565b9150826002028217905092915050565b61043082610206565b67ffffffffffffffff81111561044957610448610077565b5b6104538254610240565b61045e82828561039a565b600060209050601f831160018114610491576000841561047f578287015190505b610489858261040b565b8655506104f1565b601f19841661049f86610271565b60005b828110156104c7578489015182556001820191506020850194506020810190506104a2565b868310156104e457848901516104e0601f8916826103ed565b8355505b6001600288020188555050505b505050505050565b610771806105086000396000f3fe608060405234801561001057600080fd5b50600436106100365760003560e01c8063a41368621461003b578063cfae321714610057575b600080fd5b610055600480360381019061005091906102ae565b610075565b005b61005f6100c2565b60405161006c9190610376565b60405180910390f35b7f59b3a6e09a800b35392880bf39cd27fc75cf37fa0077d84dca6cc39e9e3181006000826040516100a7929190610491565b60405180910390a180600090816100be9190610669565b5050565b6060600080546100d1906103c7565b80601f01602080910402602001604051908101604052809291908181526020018280546100fd906103c7565b801561014a5780601f1061011f5761010080835404028352916020019161014a565b820191906000526020600020905b81548152906001019060200180831161012d57829003601f168201915b5050505050905090565b6000604051905090565b600080fd5b600080fd5b600080fd5b600080fd5b6000601f19601f8301169050919050565b7f4e487b7100000000000000000000000000000000000000000000000000000000600052604160045260246000fd5b6101bb82610172565b810181811067ffffffffffffffff821117156101da576101d9610183565b5b80604052505050565b60006101ed610154565b90506101f982826101b2565b919050565b600067ffffffffffffffff82111561021957610218610183565b5b61022282610172565b9050602081019050919050565b82818337600083830152505050565b600061025161024c846101fe565b6101e3565b90508281526020810184848401111561026d5761026c61016d565b5b61027884828561022f565b509392505050565b600082601f83011261029557610294610168565b5b81356102a584826020860161023e565b91505092915050565b6000602082840312156102c4576102c361015e565b5b600082013567ffffffffffffffff8111156102e2576102e1610163565b5b6102ee84828501610280565b91505092915050565b600081519050919050565b600082825260208201905092915050565b60005b83811015610331578082015181840152602081019050610316565b60008484015250505050565b6000610348826102f7565b6103528185610302565b9350610362818560208601610313565b61036b81610172565b840191505092915050565b60006020820190508181036000830152610390818461033d565b905092915050565b7f4e487b7100000000000000000000000000000000000000000000000000000000600052602260045260246000fd5b600060028204905060018216806103df57607f821691505b6020821081036103f2576103f1610398565b5b50919050565b60008190508160005260206000209050919050565b6000815461041a816103c7565b6104248186610302565b9450600182166000811461043f576001811461045557610488565b60ff198316865281151560200286019350610488565b61045e856103f8565b60005b8381101561048057815481890152600182019150602081019050610461565b808801955050505b50505092915050565b600060408201905081810360008301526104ab818561040d565b905081810360208301526104bf818461033d565b90509392505050565b60006020601f8301049050919050565b600082821b905092915050565b6000600883026105157fffffffffffffffffffffffffffffffffffffffffffffffffffffffffffffffff826104d8565b61051f86836104d8565b95508019841693508086168417925050509392505050565b6000819050919050565b6000819050919050565b600061056661056161055c84610537565b610541565b610537565b9050919050565b6000819050919050565b6105808361054b565b61059461058c8261056d565b8484546104e5565b825550505050565b600090565b6105a961059c565b6105b4818484610577565b505050565b5b818110156105d8576105cd6000826105a1565b6001810190506105ba565b5050565b601f82111561061d576105ee816103f8565b6105f7846104c8565b81016020851015610606578190505b61061a610612856104c8565b8301826105b9565b50505b505050565b600082821c905092915050565b600061064060001984600802610622565b1980831691505092915050565b6000610659838361062f565b9150826002028217905092915050565b610672826102f7565b67ffffffffffffffff81111561068b5761068a610183565b5b61069582546103c7565b6106a08282856105dc565b600060209050601f8311600181146106d357600084156106c1578287015190505b6106cb858261064d565b865550610733565b601f1984166106e1866103f8565b60005b82811015610709578489015182556001820191506020850194506020810190506106e4565b868310156107265784890151610722601f89168261062f565b8355505b6001600288020188555050505b50505050505056fea2646970667358221220571034038250c7520a0f23cc7fb581030ba688bd180bce87b3fd6a2d26b6859764736f6c634300081c0033",
  "linkReferences": {},
  "deployedLinkReferences": {}
}